{
  "_format": "hh-sol-artifact-1",
  "contractName": "DonationContract",
  "sourceName": "contracts/Donate.sol",
  "abi": [
    {
      "inputs": [],
      "stateMutability": "nonpayable",
      "type": "constructor"
    },
    {
      "anonymous": false,
      "inputs": [
        {
          "indexed": true,
          "internalType": "address",
          "name": "donor",
          "type": "address"
        },
        {
          "indexed": false,
          "internalType": "uint256",
          "name": "amount",
          "type": "uint256"
        }
      ],
      "name": "DonationReceived",
      "type": "event"
    },
    {
      "inputs": [],
      "name": "donate",
      "outputs": [],
      "stateMutability": "payable",
      "type": "function"
    },
    {
      "inputs": [],
      "name": "owner",
      "outputs": [
        {
          "internalType": "address payable",
          "name": "",
          "type": "address"
        }
      ],
      "stateMutability": "view",
      "type": "function"
    },
    {
      "inputs": [],
      "name": "totalDonations",
      "outputs": [
        {
          "internalType": "uint256",
          "name": "",
          "type": "uint256"
        }
      ],
      "stateMutability": "view",
      "type": "function"
    }
  ],
  "bytecode": "0x608060405234801561001057600080fd5b5033600160006101000a81548173ffffffffffffffffffffffffffffffffffffffff021916908373ffffffffffffffffffffffffffffffffffffffff1602179055506103a5806100616000396000f3fe6080604052600436106100345760003560e01c80638da5cb5b14610039578063de2ed89314610064578063ed88c68e1461008f575b600080fd5b34801561004557600080fd5b5061004e610099565b60405161005b919061021a565b60405180910390f35b34801561007057600080fd5b506100796100bf565b604051610086919061024e565b60405180910390f35b6100976100c5565b005b600160009054906101000a900473ffffffffffffffffffffffffffffffffffffffff1681565b60005481565b60003411610108576040517f08c379a00000000000000000000000000000000000000000000000000000000081526004016100ff906102ec565b60405180910390fd5b34600080828254610119919061033b565b925050819055503373ffffffffffffffffffffffffffffffffffffffff167f264f630d9efa0d07053a31163641d9fcc0adafc9d9e76f1c37c2ce3a558d2c5234604051610166919061024e565b60405180910390a2600160009054906101000a900473ffffffffffffffffffffffffffffffffffffffff1673ffffffffffffffffffffffffffffffffffffffff166108fc349081150290604051600060405180830381858888f193505050501580156101d6573d6000803e3d6000fd5b50565b600073ffffffffffffffffffffffffffffffffffffffff82169050919050565b6000610204826101d9565b9050919050565b610214816101f9565b82525050565b600060208201905061022f600083018461020b565b92915050565b6000819050919050565b61024881610235565b82525050565b6000602082019050610263600083018461023f565b92915050565b600082825260208201905092915050565b7f54686520616d6f756e74206d7573742062652067726561746572207468616e2060008201527f3000000000000000000000000000000000000000000000000000000000000000602082015250565b60006102d6602183610269565b91506102e18261027a565b604082019050919050565b60006020820190508181036000830152610305816102c9565b9050919050565b7f4e487b7100000000000000000000000000000000000000000000000000000000600052601160045260246000fd5b600061034682610235565b915061035183610235565b92508282019050808211156103695761036861030c565b5b9291505056fea2646970667358221220fbe302b67c9e5fcb22b3151489fb7227cec75bb8a60d88b5222825aae0845de064736f6c63430008130033",
  "linkReferences": {},
  "deployedLinkReferences": {}
}